:400000000080002011000000750500007505000008B5044B1A6803F53F5302331A6000F0C9FA00BFFA46004010B5054C237833B9044B13B10448AFF300800123237010BDC0
:400040007881FF1F0000000010330000084B10B51BB108490848AFF300800848036803B910BD074B002BFBD0BDE81040184700BF000000007C81FF1F10330000C880FF1F1C
:400080000000000010B500F0E9FD164B1870164B1B7898420CD1154C204600F0EDFE144B188000232370134A137000F0EDFD10BD0D4B5B7898420CD10C4C204600F0DCFED1
:4000C0000B4B5880002323700A4A137000F0DCFD10BD0849087000234B70044801F05AFA10BD00BFE481FF1FCC80FF1FEC81FF1F9481FF1FFC81FF1FC0F30720704700BF55
:40010000C0B27047F8B500F073FB644A9080B2F90030181A9060D3680344D3601369C31A5361322101FB03F3642101FB00309061B0F5FA4F04DD4FF4FA42584B9A6105E056
:4001400010F5FA4F02DA564A544B9A61534B9B693133622B02D8002000F0EAFA4F4B9B69002B0ADD002000F0B7FA012000F0C0FA4A4B188B00F0DCFA14E0002B0CDA01205A
:4001800000F0AAFA002000F0B3FA444B9869404280B200F0CDFA05E0002000F09DFA002000F0A6FA3D4CA368236100F0E3FBA083B4F90230181A2062636A03446362A36A35
:4001C000C31AE362322202FB03F3642202FB00302063B0F5FA4F03DD4FF4FA42226305E010F5FA4F02DA2E4A2C4B1A632B4B1B6B3133622B02D8002000F018FC274B1B6B30
:40020000002B0ADD002000F071FD012000F07AFD224B188E00F00AFC14E0002B0CDA012000F064FD002000F06DFD1C4B186B404280B200F0FBFB05E0002000F057FD0020BF
:4002400000F060FD154B1A6A9A62164A93780133DBB2937013F01F0F1FD1104B5B6BE3B9114C0025257065700C4EB6F904703846FFF742FFA0703846FFF742FFE070B6F962
:400280001C703846FFF738FF20713846FFF738FF6071A571E57101237363F8BD9481FF1F0083FFFFCC80FF1F0482FF1F08B500F091FA00F0D3FA002000F0A2FA00F008FC88
:4002C00000F08EFB002000F05DFB00F0B9FC00F0B5FD00F04DFD0A4800F058FD00F0E0F9084800F0EBF962B6074B5B6B012BFBD10821064800F0E6FC0022034B5A63F3E7A0
:4003000005010000850000009481FF1F0482FF1FFEE700BFF0B40022174611E050F82760F3B226F0FF0608E001EB420511F812406D78A5550132013BDBB2002BF4D101379B
:40034000282FEBD9F0BC7047064B1B78DBB203F00701054A11701B09013213704422034B1A707047CF0100496E5800407658004008B50A46002100F0BAFD08BD38B53322EB
:40038000244B1A80182202331A70022203F27E231A7008224FF040231A70032103F5007319701D4B1B78DBB21C490B701C4B1A8041F25122023B1A80002419250CE0194BF1
:4003C0001B7803F0010343EA440404F003044FF4F07000F041FD013D0DB1032CEFD115B90320FFF795FF104B4FF480721A8007221A7000220D490A704820023108701A7060
:400400000222033B1A700A4A137843F00103137038BD00BF8040004008010049A146004022420040254200400440004006400040A243004008B500F04FFD08BD38B572B6BD
:40044000394A137843F00403137000240CE0374D630019194A0011462A44084691882858FFF786FF0134E4B2072CF0D900240BE02E48A20011194B0003441A8F596B186B7D
:40048000FFF7D8FF0134E4B2012CF1D928494FF09040FFF73FFF274A274B1A6002F1404203F520631A60254A137843F0020313701032137843F002031370214C237843F0BA
:4004C00040032370A2F58632513A137843F0100313700A221B491C48FFF7ACFF08221B491B48FFF7A7FF0A221A491B48FFF7A2FF08221A491A48FFF79DFF1A4A137843F0AA
:4005000008031370184D61232B70FFF737FF81232B700122154B1A70FFF716FF0E2221461348FFF787FF38BDE846004018330000A400004804040484D800014003500140E1
:40054000A04300409C0D0048C0510040A80D004812510040B00D004820510040BC0D004832510040224300400048004004000840B043004008B500F083FC03680C2B00D1A1
:40058000FEE7FEE708B5094B1A681044084BC31AB3F5007F02DC054B186005E000F070FC0C2303604FF0FF32104608BDD080FF1F1082FF1F08B5104E104D16E029686B683F
:4005C000AC68002204E051F8040B43F8040B0432A242F8D1E868002203E0002143F8041B04328242F9D11035013E002EE6D100F04DFCFFF75BFEFEE701000000AC35000010
:4006000008B5104A104B1A60104A136843F40073136000230AE0032B03D80D4A52F8231000E00C490C4A42F8231001332F2BF2D90A4B1A780A4B1A70074A0A4B1A60FFF7C5
:40064000FDFE08BD0004FA050CED00E014ED00E000000000750500000080FF1FBC760040C080FF1F08ED00E0704700BF014B1B681864704708ED00E04001C0B2014B18706C
:40068000704700BF00E400E00122014B1A60704700E100E00122014B1A60704780E100E008B5FFF7F7FF0448FFF7E0FF0220FFF7E3FFFFF7E9FF08BD6906000010B50446D9
:4006C000FFF7E8FF2046FFF7D1FF0220FFF7D4FFFFF7DAFF10BD00BF044A137803F0BF03800100F0400018431070704720510040044A137803F07F03C001C0B218431070CD
:40070000704700BF20510040024A137843F08003137070477D640040014B1880704700BF18680040014B1880704700BF98680040014B1880704700BF58680040014B1870C8
:40074000704700BF8D640040014B1878704700BF6D640040014B188880B27047B868004008B501E0FFF7F6FFFFF7EEFF10F0100FF8D108BD10B5154A137803F0C00343F089
:40078000090313701F32137843F001031370104C237843F0010323704FF6FF70FFF7BCFF4FF6FF70FFF7BEFF0020FFF7C1FF0020FFF7C4FF00F058FB237843F01003237021
:4007C00000F056FBFFF7CCFF10BD00BF7D6400409D64004008B5054B1B7823B9FFF7CAFF0122024B1A70FFF78FFF08BDD081FF1F08B500F05FF8A0F5004000B208BD00BF0D
:4008000008B5002803DB80B280F4004002E0A0F5004080B200F048F808BD00BF024B187800F00F00704700BF63640040014B1870704700BF8364004008B50F20FFF7F6FFD1
:40084000FFF7ECFF00F010FB034A137843F01003137000F00DFB08BD9364004008B500F07BF84FF4004000F01FF8044B1B7813B90122024B1A70FFF7DFFF08BDD181FF1FAC
:40088000024A137843F080031370704774640040014B1870704700BF81640040014B1878704700BF61640040014B1880704700BF00680040024B1B78024B188880B27047DB
:4008C0000064004080680040014B188880B2704780680040014B1880704700BF40680040014B1880704700BF6068004008B501E0FFF7EAFFFFF7D2FF10F0400FF8D108BD6A
:4009000008B5134B1A7802F0F8021A701A7802F0FC021A70FFF7EAFF4FF40040FFF7DAFF4FF40040FFF7C0FF0020FFF7B1FFFFF7B5FF4FF40040FFF7D3FF00F095FA054A96
:40094000137843F01003137000F092FA08BD00BF746400409164004008B5054B1B7823B9FFF7CEFF0122024B1A70FFF789FF08BDD281FF1F08B500F0D3F8A0F5004000B2EA
:4009800008BD00BF08B5002803DB80B280F4004002E0A0F5004080B200F0BCF808BD00BF024B187800F00F00704700BF6F640040014B1870704700BF8F64004008B50F202B
:4009C000FFF7F6FFFFF7ECFF00F04EFA034A137843F01003137000F04BFA08BD9F64004008B500F0EFF84FF4004000F093F8044B1B7813B90122024B1A70FFF7DFFF08BD42
:400A0000D381FF1F024A137843F080031370704774650040014B1880704700BF0C680040014B1880704700BF8C680040014B1880704700BF4C680040014B1870704700BF30
:400A400087640040014B1878704700BF67640040014B188880B27047AC68004008B501E0FFF7F6FFFFF7EEFF10F0100FF8D108BD10B5154A137803F0C00343F00903137085
:400A8000DE3A137843F001031370104C237843F0010323704FF6FF70FFF7BCFF4FF6FF70FFF7BEFF0020FFF7C1FF0020FFF7C4FF00F0DAF9237843F01003237000F0D8F9A5
:400AC000FFF7CCFF10BD00BF746500409764004008B5054B1B7823B9FFF7CAFF0122024B1A70FFF78FFF08BDD481FF1F024A137843F08003137070477A640040014B1870AB
:400B0000704700BF8B640040014B1878704700BF6B640040014B1880704700BF14680040024B1B78024B188880B270470A64004094680040014B188880B2704794680040E8
:400B4000014B1880704700BF54680040014B1880704700BF7468004008B501E0FFF7EAFFFFF7D2FF10F0400FF8D108BD08B5134B1A7802F0F8021A701A7802F0FC021A7059
:400B8000FFF7EAFF4FF40040FFF7DAFF4FF40040FFF7C0FF0020FFF7B1FFFFF7B5FF4FF40040FFF7D3FF00F05FF9054A137843F01003137000F05CF908BD00BF7A6400403F
:400BC0009B64004008B5054B1B7823B9FFF7CEFF0122024B1A70FFF789FF08BDD581FF1F7222084B1A70202202331A700622A3F267131A70472210331A70022254331A7028
:400C0000704700BF8965004010B500F02DF904460A4A137843F0200313700232137843F010031370A2F20312137843F01003137000F074F8204600F01BF910BD99650040DD
:400C400008B5054B1B7823B9FFF7CAFF0122024B1A70FFF7D9FF08BDD681FF1F084B1B78DBB213F0200F06D0064A1078C0B213F01E0F02D17047002070470020704700BF4B
:400C80006B6500404865004008B500F0EDF8064B1A7842F001021A701A7802F0FE021A7000F0E6F808BD00BF98650040034B1B7813F0040FFAD1024B18707047686400400C
:400CC00048640040084B1B7833B97047305DFFF7EDFF0134E4B203E070B50D4606460024AC42F3D370BD00BFD681FF1F044A137803F0DF03400100F02000184310707047D4
:400D000030510040044A137803F0BF03800100F0400018431070704730510040054A137843F0010313701032137843F001031370704700BFA2430040704700BF014B1B6865
:400D40005864704708ED00E04001C0B2014B1870704700BF01E400E00222014B1A60704700E100E00222014B1A60704780E100E008B5FFF7F7FF0448FFF7E0FF0020FFF745
:400D8000E3FFFFF7E9FF08BD390D000010B50446FFF7E8FF2046FFF7D1FF0020FFF7D4FFFFF7DAFF10BD00BF024A137843F080031370704775650040014B1870704700BFE1
:400DC00087650040014B1878704700BF67650040014B1860704700BF24650040014B1868704700BF44650040014B1860704700BF0465004008B501E0FFF7F0FFFFF7E2FFFE
:400E000010F0080FF8D108BD08B545F6BF50FFF7DFFF45F6BF50FFF7E7FF00F025F8064A137843F01003137000F022F8FFF7E2FF0020FFF7C1FF08BD9765004008B5054B96
:400E40001B7823B9FFF7E0FF0122024B1A70FFF7ABFF08BDD881FF1F0230800803D000BF01380046FCD17047EFF3108072B6704780F31088704700BF0A22002100F028BC16
:400E8000014B1868704700BF3481FF1F0E4B70B51E460E4C0025E41AA410A54204D056F8253098470135F8E702F06EFB084B094C1E46E41AA4100025A54204D056F825301C
:400EC00098470135F8E770BD9435000094350000943500009C35000010B5431E0A44914204D011F8014B03F8014FF8E710BD03460244934202D003F8011BFAE770472DE943
:400F0000F04788B0149F002B1E461299B8BF03F1004327F02007B6BF1E4600232D23462F1446109DDDF84CA00B7003D0452F03D1013501E0032300E0022307AA049206AA11
:400F400003928DE828042246334600F059FC472F804602D1119BDB0728D5462F08EB050911D198F80030302B0AD1002200232046314602F05DF918B9C5F10105CAF8005024
:400F8000DAF800309944002200232046314602F04FF908B9302202E0CDF81C9006E0079B994503D9591C07911A70F8E74046079B159AC8EB0303136008B0BDE8F0870346B8
:400FC00073B50029B8BF494203F8022BB4BF2D222B22092942701ADD0DF1070216460A2591FBF5F405FB1411092C01F1300102F8011D2146F4DC3031541E02F8011CB442D9
:401000001A460AD214F8012B03F8012BF7E71A463024214402F8024B5970101A02B070BD2DE9F04F91B00C46DDF8688016461F46054601F07DF903681846099300F0B9FAE5
:4010400000230E93D8F800300A90073323F0070303F1080294F81890D4F800B0C8F80020D3E90023C4E91223D4F84CA0D4F848802AF000430B934FF0FF32A74B40460B9999
:4010800002F008F9A0B94FF0FF32A34B40460B9902F0E2F860B9002200234046514602F0D1F810B12D2384F843309C4B9C4A0AE0424653464046514602F0ECF8002800F077
:4010C0009281984B984AB9F1470F8CBF90469846032323612BF0040323604FF0000A3DE0B9F1670F00F08A81B9F1470F00F0868123600193636800210DF1330205900292F3
:401100000093424653460691CDF81090CDF80CE02846FFF7F4FE09F0DF03472B804600F08481B9F1650F0D9900F28D8101394A4604F150000D91FFF742FF0E9A824683183D
:40114000012A236100F37C812268D10700F178819DF8333013B12D2384F84330009733460FAA2146284600F09FF9013002D14FF0FF3096E123685A0501D4236965E0B9F140
:40118000650F40F2D580D4E912010022002302F04FF878B30123654A31462846B8470130E5D00E9B0D9A9A420BDB2368D80708D423689B0740F111814FF0000804F1190978
:4011C00006E10A9B099A31462846B8470130CED04FF0000804F11A090E9B013B9845E7DA01234A4631462846B8470130BFD008F10108F1E70D9B002B29DC01234B4A3146F1
:401200002846B8470130B2D00D9B23B90E9B13B92368D907CCD50A9B099A31462846B8470130A4D04FF0000904F11A0A0D9B5B42994509DA0123524631462846B847013080
:4012400095D009F10109F1E70E9B4246A7E00E9AA36D9A42A8BF1A46002A914606DC4FF0000A29EAE97904F11A0B11E01346314642462846B8470130F1D178E701235A4693
:4012800031462846B84701303FF471AF0AF1010AA36DC9EB03029245F0DB08EB03090D9A0E9B9A420FDB2368DA070CD40E9B0D9A9844C9EB08089B1A9845A8BF9846B8F184
:4012C000000F08DC0FE00A9B099A31462846B8470130EBD14BE743464A4631462846B84701303FF444AF4FF0000928EAE87804F11A0A09E00123524631462846B8470130E0
:401300003FF435AF09F101090D9A0E9B9B1AC8EB03039945EEDB4BE7FFFFEF7F5E33000062330000663300006A3300006E3300000E9A012A01DCDB0738D5012342463146D0
:401340002846B84701303FF412AF0A9B099A31462846B84701303FF40AAFD4E912010022002301F065FF20B14FF0000804F11A090EE00E9B08F10102013B19E001234A467C
:4013800031462846B84701303FF4F1AE08F101080E9B013B9845F1DB534604F1500231462846B84701307FF403AFE0E64246012331462846B8470130EED1D8E601234A46E4
:4013C00031462846B84701303FF4D1AE08F10108E3680F9A9B1A9845F0DBE0680F9B9842B8BF18465DE062680EA8531C0DF1340E4BF480637FF474AE062201E012B9012218
:40140000626075E6002106910DF133018DE80C00236005904246CDF81090CDF80CE0029153462846FFF76BFD80460D9BD81C02DB626893421DDDA9F102095FFA89F970E6C8
:401440000133236184E6B9F1660F14D10029636807DD216113B92268D2071DD501330B4419E013B92268D00701D5023313E0012311E04FF067090D9B0E9A934205DB2268D1
:401480002361D10708D5013305E0002BD4BFC3F102030123134423610D9B4FF0000AA36556E611B0BDE8F08F2DE9F04791461F460A698B6806469342B8BF1346C9F8003079
:4014C00091F843200C46DDF8208012B10133C9F800302368990642BFD9F800300233C9F80030256815F0060510D104F1190A07E00123524639463046C04701301AD0013579
:40150000E368D9F800209B1A9D42F1DB94F843302268003318BF012392060FD5E118302081F843005A1C94F845102244023382F8431003E04FF0FF30BDE8F08704F1430271
:4015400039463046C0470130F4D02268D9F80050E36802F00602042A08BF5D1B2269A3680CBF25EAE57500259342C4BF9B1AED184FF000091A344D4509D001232246394610
:401580003046C0470130D5D009F10109F3E70020BDE8F087024610B513461C780132002CFAD1013B11F8012B03F8012F002AF9D110BD034613F8012B002AFBD1181A01385C
:4015C000704700002DE9F0470F4680463F48D0F800903D4615F8014B09EB0400407800F0080000F0FF0608B12F46F2E72D2C03D1BD1C7C78012603E02B2C04BF7C78BD1C82
:4016000013B1102B0AD15BE0302C57D1287800F0DF0058284DD16C7810230235002E14BF4FF0004C6FF0004CBCFBF3FA0027384603FB1ACC09EB040E9EF801E01EF0040FB4
:4016400001D0303C0BE01EF0030E1BD0BEF1010F0CBF4FF0370E4FF0570ECEEB0404A34210DDB7F1FF3F0AD0504506D801D1644503DC03FB0040012701E04FF0FF3715F89D
:40168000014BD7E77B1C0CD1002E4FF0220314BF4FF000406FF00040C8F800302AB9BDE8F08706B1404272B107B1691E1160BDE8F0873024002BB1D10823AFE70A23ADE78F
:4016C000302CA3D0AAE7BDE8F08700BF3881FF1F13460A46014602480068FFF773BF00BF3481FF1F2DE9F74F03690C6980469C427FDC013C01F114074FEA840E00F1140620
:4017000006EB0E0357F82450019356F824300135B3FBF5F507EB0E09C5B34FF0000A3846B446D34650F8043B9AB205FB02A21B0C4FEA124A05FB03A392B2C2EB0B0BBCF8F1
:4017400000204FEA134A5A441FFA83FBDCF800308145CBEB134303EB224392B242EA03424FEA234B4CF8042BDCD256F80E306BB9019B043B9E421A4602D3C8F8104005E043
:401780001268043B002AF8D1013CF3E7404600F0E8FF00282BDB304601354FF0000E57F8042B036891B2C1EB0E0E120C99B27144C2EB134303EB214389B24FEA234EB94598
:4017C00041EA034340F8043BE9D256F8242006EB840362B9043B9E421A4602D3C8F8104005E01268043B002AF8D1013CF3E7284600E0002003B0BDE8F08F000000000000D0
:401800002DE9F04F456A95B08246219CCDE9022345B9102000F090FDCAF82400456085600560C560DAF82430196859B15A68012393404A608B60504600F0BBFDDAF82430F7
:4018400000221A60039BA04A002BBDBF01232360039B0023BCBF23F000430393DDF80C80A8BF236028F000431B0D1B0593421DD142F20F73209A1360029B43B9934A944BE5
:40188000C8F31300002814BF1846104600E09048229B002B00F04685C37813B100F1080300E0C31C229A136000F03CBDDDE90245002200232046294601F0BAFC074658B15A
:4018C000209A01231360229B002B00F01E8581481860013800F026BD12AB019313AB009322462B46504600F0B7FFC8F30A56049056B1C5F3130343F07F51204641F44011A5
:40190000A6F2FF3611971DE0139B129E1E4406F23243202B0ADD029A06F21240C3F1400322FA00F008FA03F3184304E0C3F12000029B03FA00F001F09DF90123A1F1F871B2
:40194000013E11930022644B01F056F858A3D3E9002301F005FA58A3D3E9002301F04EF8044630460D4601F095F955A3D3E9002301F0F6F902460B462046294601F03EF8BB
:4019800004460D4601F09CFC0022834600232046294601F057FC58B1584601F07BF902460B462046294601F043FC08B90BF1FF3BBBF1160F0DD8DDE90223484901EBCB014F
:4019C000D1E9000101F05CFC30B10BF1FF3B002300E00123109300E01090129B9E1B731E079343BFC3F10008002307934FF00008BBF1000F06DB079BCDF82CB05B44079317
:401A0000002705E00023CBEB0808CBF100070B931E9B092B28D8052BC4BF043B1E931E9BC8BF0025A3F10203D8BF0125032B20D8DFE803F0060E0204012302E0012308E0F9
:401A400000230A931F9B002B1DDD9946059321E000230A931F9B0BEB030909F10103012B0593B8BF012315E0012500231E930A9501E001230A934FF0FF390022CDF8149044
:401A800012231F9206E04FF001094B46CDF81490CDF87C90DAF8244000226260042101F114029A421CD86268490001326260F6E761436F63A787D23FB3C8608B288AC63F78
:401AC000FB799F501344D33F0000F07F713400007A3400006F3300000000F83F883400006168504600F030FCDAF8243020601B680693059B0E2B00F25B81002D00F05881E9
:401B0000DDE90234BBF1000FCDE90E3430DD9F4A0BF00F034FEA2B1502EBC303E80618CBCDE908340CD5DDE90E01994B05F00F05D3E9082301F03EFA0324CDE9020100E091
:401B40000224934E6DB1E90708D5DDE90801D6E9002301F005F9CDE9080101346D100836F0E7DDE90823DDE9020101F023FA20E0CBF1000505B3DDE90E01844B05F00F0262
:401B800003EBC203D3E9002301F0EAF8CDE902017F4E2D110023022455B1EA0705D5D6E9002301F0DDF8013401236D100836F3E71BB1CDE9020100E00224109BE3B1DDE9BC
:401BC00002560022734B2846314601F03BFB98B1059B8BB1B9F1000F40F3E6800BF1FF330893314600226C4B284601F0B9F80134CDE902014E4602E0059ECDF820B02046FF
:401C000001F048F8DDE9022301F0AAF8634B002200F0F4FEA1F1507304460C931D46D6B9DDE9020100225E4B00F0E6FE22460C9BCDE9020101F024FB002840F03F820C9915
:401C4000224601F10043DDE9020101F0FBFA002840F02B82A8E00A9A4C4B711E002A49D003EBC103D3E9002300204E4901F0A2F922462B4600F0C0FECDE90C01069CDDE9F8
:401C8000020101F01DFB054601F004F802460B46DDE9020100F0B0FEDDE90C23303504F8015BCDE9020101F0CDFA002840F01D83DDE902230020374900F09EFEDDE90C23B9
:401CC00001F0C0FA002840F0D180069BE31AB3426ADADDE90C0100222F4B01F041F80022CDE90C01DDE902012B4B01F039F8CDE90201C4E703EBC1012246D1E900012B4632
:401D000001F02EF8069BCDE90C011D469C19DDE9020101F0D5FA064600F0BCFF02460B46DDE9020100F068FE303605F8016BAC42CDE902014FF0000222D11A4BDDE90C01F6
:401D400000F05CFE02460B46DDE9020101F098FA002840F08B80DDE90C230020114900F04BFE02460B46DDE9020101F06BFAD8B114F8013C621E302B40F0B7821446F7E723
:401D8000054B00F0EDFFCDE90201C0E788340000603500000000F03F0000244000001C40000014400000E03FDDE90E34CDE90234139B002B7CDBBBF10E0F79DCAB4B03EBBE
:401DC000CB03D3E900671F9B002B14DA059B002B11DC40F06C810022A54B3046394600F0BFFFDDE9022301F041FA059D2E46002840F05F8165E1069CDDE9028932463B46FE
:401E00004046494601F0D6F801F05AFA054600F041FF32463B4600F0A3FF0B4602464946404600F0E9FD05F1300E069B04F801EBC3EB040E059B73452DD102460B4600F0A3
:401E4000DDFD8046894602460B463046394601F0F9F978B942464B463046394601F0E8F9002800F04482EB0704D440E2DDF820B000E01C4614F8012C631E392A07D1069A2B
:401E80009A42F6D1069930220BF1010B0A701A7801321A702BE20022764B00F061FF002200238046894601F0C3F90028A6D01EE20A9A002A2BD01E9A012A0ADC119A12B158
:401EC00003F2334302E0129BC3F136033D46444613E0059B5D1EAF42BFBF0B9BEA1B9B180B93059BB6BF2F467D1B0025002BA7BF4446059BC3EB08040023079A01211A4475
:401F000050469844079200F0F3FA064602E03D4644460A9E5CB1079B002B08DDA342A8BF2346079AC3EB0808E41AD31A0793002F1DDD0A9BABB18DB131462A46504600F0A9
:401F400071FB049A01460646504600F0DAFA04990890504600F02DFA089B04937A1B06D000E03A460499504600F05CFB04900121504600F0BDFA0B9B05465BB31A46014670
:401F8000504600F04FFB1E9B0546012B18DC029B83B9039BC3F3130373B9039B23F000473F0D3F054FB1079B08F1010801330793012702E0002700E0029F0B9B73B100E068
:401FC00000272B6905EB8303186900F044FAC0F1200004E01E9B012BD9DD0B9F0120079B184410F01F0008D0C0F12003042B02DDC0F11C0002E006D018461C30079B80447A
:40200000034404440793B8F1000F05DD42460499504600F055FB0490079B002B05DD29461A46504600F04CFB0546109B23B32946049800F096FB00281EDA00230A2204999F
:40204000504600F0CDF90A9B0BF1FF3B0490002B00F05F81314600230A22504600F0C0F9B9F1000F06463FDC3BE000BF883400000000144000002440059B002B2BDC1E9BAC
:40208000022B28DDDDF81490B9F1000F11D129464B460522504600F0A3F901460546049800F05FFB00280CDC03E0354600E000252E461F9B069C6FEA030B09E03546DDF836
:4020C00020B0069B069A5C1C312313700BF1010B05960026F7E00A9BDDF8149023B9069CB2E01E9B022BCFDC002C05DD31462246504600F0E5FA06469FB17168504600F0D4
:4021000023F90446326906F10C01023292000C30FEF7E2FE01222146504600F0D1FA059000E00596029B069F03F00103079329460498FFF7D7FA3146044600F130080498AD
:4021400000F00FFB059A02902946504600F025FBC36802463BB901460A90049800F001FB0A9A034600E00123114650460A9300F020F90A9B53B91E9A42B9079A32B9B8F132
:40218000390F2AD0029B002B1CDC1DE0029A002A04DB1BD11E9ACAB9079ABAB9002B13DD01220499504600F08BFA2946049000F0D8FA002803DC07D118F0010F04D0B8F121
:4021C000390F0AD004F131087C1C0CE0002B07F101040BDDB8F1390F03D139233B70013756E008F1010887F800806CE0069B2746E31A4B4504F8018C3BD000230A22049959
:40220000504600F0EDF8059B04909E424FF00A024FF000033146504604D100F0E1F80646059084E700F0DCF8002306460A220599504600F0D5F8059079E700230A2204996A
:40224000504600F0CDF8049029460498FFF74AFA069B00F1300804F8018BE31A4B45ECDB069B0596B9F1010FACBF4B4401331F46002601220499504600F022FA2946049080
:4022800000F06FFA002803DC15D118F0010F12D03C4614F8013C621E392B09D1069B934204D10BF1010B3123069A02E01446F0E70133137007E03C4614F8013C621E302BB7
:4022C00001D11446F8E72946504600F072F8059B6BB12EB19E4203D03146504600F069F80599504600F065F801E0DDF820B00499504600F05EF80023209A23700BF10103D8
:402300001360229B1BB11C6001E008480AE0069808E0B9F1000F3FF7E2AE1E9B022B7FF7DEAEB1E615B0BDE8F08F00BF6E330000004870473C81FF1F024B0146186800F05F
:40234000E7BA00BF3481FF1F70B5456A04460E463DB91020FFF7F0FF6062456085600560C560656AEB6843B1636ADB6853F8260078B1026843F8262017E021220421204667
:4023800000F0B8FA636AE860DB68002BECD1002070BD012101FA06F56A1D9200204600F0A9FA0028F3D04660856000230361C36070BD70B5446A06460D463CB91020FFF7EA
:4023C000BBFF7062446084600460C4603DB1736A6A68DB6853F82210296043F8225070BD2DE9F04106460C460D691F4601F1140E0023DEF80000013381B202FB0171000CD2
:402400000F0C02FB007089B201EB00419D424FEA10474EF8041BECDCD7B1A3689D4212DB616830460131FFF78FFF8046226904F10C01023292000C30FEF74EFD214630464A
:40244000FFF7B7FF444604EB850301355F6125612046BDE8F081030C1B0413B90004102300E0002310F07F4F04BF0002083310F0704F04BF0001043310F0404F04BF800029
:402480000233002803DB420003D5581C70471846704720207047036813F007020BD0D90722D49A074BBF5B089B08036003604CBF01200220704799B209B91B0C102213F083
:4024C000FF0F04BF1B0A0832190704BF1B090432990704BF9B080232D90702D45B0805D00132036010467047002070472020704710B50C460121FFF727FF01224461026156
:4025000010BD2DE9F74F14460A69236988469A42BEBF0B46A0461C46D8F81070D4F81090D8F80830D8F8041007EB09069E42C8BF0131FFF709FF00F114052B4605EB860C1C
:402540000022634502D243F8042BFAE704F1140208F1140102EB890301EB87070093009B0192934257D9B2F800B0BBF1000F23D08946AE464FF0000859F8044BBEF800A098
:40258000A3B20BFB03A34FEA144ADEF8004043444FEA14480BFB0A84F24604EB13449BB243EA04434F454FEA14484AF8043B01D9D646E1E7CEF80480019B0432B3F802A0AD
:4025C000BAF1000F21D02C4689462B684FF00008B9F800E0B4F802B09BB20AFB0EBEA346F04443EA08434BF8043B59F8043BB4F804E01B0C0AFB03E34F4503EB18434FEAA9
:40260000134801D95C46E3E763600435A7E75CF8043D13B9013E002EF9DC066103B0BDE8F08F00002DE9F843154612F0030206460F4607D0214C013A002354F82220FFF714
:40264000CFFE0746AD1036D0746A3CB91020FFF773FE7062446084600460C460D6F82480D8F808404CB940F271213046FFF740FF04460023C8F8080003604FF00008EB0762
:402680000AD5394622463046FFF73BFF814639463046FFF78EFE4F466D100CD0206808B10446ECE7224621463046FFF72AFF2060C0F80080F4E73846BDE8F883503500000A
:4026C0002DE9F0470C460746914626694FEA621A56444968A368751CAB4202DA01315B00FAE73846FFF730FE002380461A4600F11401534503DA41F823200133F9E72AEAAB
:40270000EA73206901EB830319F01F0904F1140101EB800E14D0C9F1200C002208689A4600FA09F0024343F8042B51F8042B8E4522FA0CF2F2D8CAF8042042B1B51C06E0EF
:40274000043B51F8042B8E4543F8042FF9D8013D3846C8F810502146FFF72BFE4046BDE8F08703690A6910B59B1A11D192001430143183180A4453F8044D52F8041D8C4278
:4027800002D007D3012010BD9842F4D3002010BD184610BD4FF0FF3010BD2DE9F8430C460746114620461546FFF7DBFF061E08D131463846FFF7C8FD012303614661BDE832
:4027C000F883BCBF23462C4638466168BABF1D4601260026FFF7B8FD2B69C660266905F1140904F1140101EB860709EB830800F114054FF0000C51F8042B59F8044B93B2DD
:402800009C44A3B2240CC3EB0C03C4EB124202EB23429BB24FEA224CC84543EA02428E4645F8042BE7D8BE450ED25EF8041B8AB26244131403EB114392B242EA03424FEA1F
:40284000234C45F8042BEEE755F8043D0BB9013EFAE70661BDE8F8832DE9F3411C4601219046089E099DFFF76FFDC4F31302C4F30A5407460CB142F480120192B8F1000F5F
:4028800019D002A840F8088DFFF705FE009B48B1019AC0F1200102FA01F10B43C2407B61019200E07B61019B002B14BF02210121BB61396107E001A8FFF7EDFD019B012192
:4028C0007B613961203034B1A4F2334404443460C0F1350009E0A0F2324007EB810330601869FFF7B8FDC0EB41102860384602B0BDE8F08138B502FB01F4214600F008F83F
:40290000054618B122460021FEF7F1FA284638BD70B5CD1C25F0030508350C2D38BF0C25002D064601DBA94202D90C23336046E000F05CF8234B1C681A462146A1B10B6829
:402940005B1B0ED40B2B03D90B60CC18CD501EE08C420BBF63684B681360636018BF0C4615E00C464968E9E7174C23681BB9304600F02CF820602946304600F027F8431C27
:4029800018D0C41C24F00304A0420DD12560304600F02DF804F10B00231D20F00700C31A0ED05A42E25070BD211A304600F00EF80130EBD10C233360304600F018F800206B
:4029C00070BD00BFE081FF1FDC81FF1F38B5064C0023054608462360FDF7D4FD431C02D1236803B12B6038BD0C82FF1F7047704781F0004102E000BF83F0004330B54FEA7C
:402A000041044FEA430594EA050F08BF90EA020F1FBF54EA000C55EA020C7FEA645C7FEA655C00F0E2804FEA5454D4EB5555B8BF6D420CDD2C4480EA020281EA030382EABE
:402A4000000083EA010180EA020281EA0303362D88BF30BD11F0004F4FEA01314FF4801C4CEA113102D0404261EB410113F0004F4FEA03334CEA133302D0524263EB430346
:402A800094EA050F00F0A780A4F10104D5F1200E0DDB02FA0EFC22FA05F2801841F1000103FA0EF2801843FA05F359410EE0A5F120050EF1200E012A03FA0EFC28BF4CF084
:402AC000020C43FA05F3C01851EBE37101F0004507D54FF0000EDCF1000C7EEB00006EEB0101B1F5801F1BD3B1F5001F0CD349085FEA30004FEA3C0C04F101044FEA445244
:402B000012F5800F80F09A80BCF1004F08BF5FEA500C50F1000041EB045141EA050130BD5FEA4C0C404141EB010111F4801FA4F10104E9D191F0000F04BF01460020B1FA80
:402B400081F308BF2033A3F10B03B3F120020CDA0C3208DD02F1140CC2F10C0201FA0CF021FA02F10CE002F11402D8BFC2F1200C01FA02F120FA0CFCDCBF41EA0C0190405F
:402B8000E41AA2BF01EB0451294330BD6FEA04041F3C1CDA0C340EDC04F11404C4F1200220FA04F001FA02F340EA030021FA04F345EA030130BDC4F10C04C4F1200220FA49
:402BC00002F001FA04F340EA0300294630BD21FA04F0294630BD94F0000F83F4801306BF81F480110134013D4EE77FEA645C18BF7FEA655C29D094EA050F08BF90EA020FE6
:402C000005D054EA000C04BF1946104630BD91EA030F1EBF0021002030BD5FEA545C05D14000494128BF41F0004130BD14F580043CBF01F5801130BD01F0004545F0FE41F3
:402C400041F470014FF0000030BD7FEA645C1ABF194610467FEA655C1CBF0B46024650EA013406BF52EA033591EA030F41F4002130BD00BF90F0000F04BF0021704730B5E7
:402C80004FF4806404F132044FF000054FF0000150E700BF90F0000F04BF0021704730B54FF4806404F1320410F0004548BF40424FF000013EE700BF42004FEAE2014FEA5E
:402CC00031014FEA02701FBF12F07F4393F07F4F81F06051704792F0000F14BF93F07F4F704730B54FF4607401F0004521F0004120E700BF50EA010208BF704730B54FF096
:402D000000050AE050EA010208BF704730B511F0004502D5404261EB41014FF4806404F132045FEA915C3FF4DCAE4FF003025FEADC0C18BF03325FEADC0C18BF033202EBE7
:402D4000DC02C2F1200300FA03FC20FA02F001FA03FE40EA0E0021FA02F11444C1E600BF70B54FF0FF0C4CF4E06C1CEA11541DBF1CEA135594EA0C0F95EA0C0F00F0DEF8F1
:402D80002C4481EA030621EA4C5123EA4C5350EA013518BF52EA033541F4801143F4801338D0A0FB02CE4FF00005E1FB02E506F00042E0FB03E54FF00006E1FB03569CF015
:402DC000000F18BF4EF0010EA4F1FF04B6F5007F64F5407404D25FEA4E0E6D4146EB060642EAC62141EA55514FEAC52040EA5E504FEACE2EB4F1FD0C88BFBCF5E06F1ED871
:402E0000BEF1004F08BF5FEA500E50F1000041EB045170BD06F0004646EA010140EA020081EA0301B4EB5C04C2BFD4EB0C0541EA045170BD41F480114FF0000E013C00F3EE
:402E4000AB8014F1360FDEBF002001F0004170BDC4F10004203C35DA0C341BDC04F11404C4F1200500FA05F320FA04F001FA05F240EA020001F0004221F0004110EBD3709E
:402E800021FA04F642EB06015EEA430E08BF20EAD37070BDC4F10C04C4F1200500FA04F320FA05F001FA04F240EA020001F0004110EBD37041F100015EEA430E08BF20EA26
:402EC000D37070BDC4F1200500FA05F24EEA020E20FA04F301FA05F243EA020321FA04F001F0004121FA04F220EA020000EBD3705EEA430E08BF20EAD37070BD94F0000F21
:402F00000FD101F00046400041EB010111F4801F08BF013CF7D041EA060195F0000F18BF704703F00046520043EB030313F4801F08BF013DF7D043EA0603704794EA0C0F92
:402F40000CEA135518BF95EA0C0F0CD050EA410618BF52EA4306D1D181EA030101F000414FF0000070BD50EA410606BF1046194652EA430619D094EA0C0F02D150EA0136D4
:402F800013D195EA0C0F05D152EA03361CBF104619460AD181EA030101F0004141F0FE4141F470014FF0000070BD41F0FE4141F4780170BD70B54FF0FF0C4CF4E06C1CEA6E
:402FC00011541DBF1CEA135594EA0C0F95EA0C0F00F0A7F8A4EB050481EA030E52EA03354FEA013100F088804FEA03334FF0805545EA131343EA12634FEA022245EA111549
:4030000045EA10654FEA00260EF000419D4208BF964244F1FD0404F5407402D25B084FEA3202B61A65EB03055B084FEA32024FF480104FF4002CB6EB020E75EB030E22BF0C
:40304000B61A754640EA0C005B084FEA3202B6EB020E75EB030E22BFB61A754640EA5C005B084FEA3202B6EB020E75EB030E22BFB61A754640EA9C005B084FEA3202B6EB16
:40308000020E75EB030E22BFB61A754640EADC0055EA060E18D04FEA051545EA16754FEA06164FEAC30343EA52734FEAC2025FEA1C1CC0D111F4801F0BD141EA00014FF095
:4030C00000004FF0004CB6E711F4801F04BF01430020B4F1FD0C88BFBCF5E06F3FF6AFAEB5EB030C04BFB6EB020C5FEA500C50F1000041EB045170BD0EF0004E4EEA1131DB
:4031000014EB5C04C2BFD4EB0C0541EA045170BD41F480114FF0000E013C90E645EA060E8DE60CEA135594EA0C0F08BF95EA0C0F3FF43BAF94EA0C0F0AD150EA01347FF4EB
:4031400034AF95EA0C0F7FF425AF104619462CE795EA0C0F06D152EA03353FF4FDAE1046194622E750EA410618BF52EA43067FF4C5AE50EA41047FF40DAF52EA43057FF4DA
:40318000EBAE12E74FF0FF3C06E000BF4FF0010C02E000BF4FF0010C4DF804CD4FEA410C7FEA6C5C4FEA430C18BF7FEA6C5C1BD001B050EA410C0CBF52EA430C91EA030FC2
:4031C00002BF90EA020F0020704710F1000F91EA030F58BF994208BF90422CBFD8176FEAE37040F0010070474FEA410C7FEA6C5C02D150EA013C07D14FEA430C7FEA6C5C84
:40320000D6D152EA033CD3D05DF8040B704700BF8446104662468C461946634600E000BF01B5FFF7B7FF002848BF10F1000F01BD4DF808EDFFF7F4FF0CBF012000205DF8CB
:4032400008FB00BF4DF808EDFFF7EAFF34BF012000205DF808FB00BF4DF808EDFFF7E0FF94BF012000205DF808FB00BF4DF808EDFFF7CEFF94BF012000205DF808FB00BFC6
:403280004DF808EDFFF7C4FF34BF012000205DF808FB00BF4FEA410C7FEA6C5C02D150EA013C0AD14FEA430C7FEA6C5C02D152EA033C02D14FF0000070474FF0010070472D
:4032C0004FEA410212F5001215D211D56FF47873B3EB625212D94FEAC12343F0004343EA505311F0004F23FA02F018BF404270474FF00000704750EA013005D111F0004097
:4033000008BF6FF0004070474FF00000704700BF0000000000000000005100401000405100403000F0510040100000000140001000140140000800400140000A004C0140C2
:40334000000210500140100060520040840D00480600005001408C0D004810004300494E4600696E66004E414E006E616E0030000020202020202020202028282828282098
:40338000202020202020202020202020202020202088101010101010101010101010101010040404040404040404041010101010101041414141414101010101010101014F
:4033C000010101010101010101010101101010101010424242424242020202020202020202020202020202020202020210101010200000000000000000000000000000004D
:40340000000000000000000000000000000000000000000000000000000000000000000000000000000000000000000000000000000000000000000000000000000000008C
:4034400000000000000000000000000000000000000000000000000000000000000000000000000000000000000000000000000000496E66696E697479004E614E00504F66
:40348000534958002E000000000000000000F03F000000000000244000000000000059400000000000408F40000000000088C34000000000006AF8400000000080842E410F
:4034C00000000000D01263410000000084D797410000000065CDCD41000000205FA00242000000E876483742000000A2941A6D42000040E59C30A2420000901EC4BCD64237
:4035000000003426F56B0C430080E03779C3414300A0D8855734764300C84E676DC1AB43003D9160E458E143408CB5781DAF154450EFE2D6E41A4B4492D54D06CFF08044E4
:40354000F64AE1C7022DB544B49DD9794378EA4405000000190000007D000000000000000080E03779C34143176E05B5B5B89346F5F93FE9034F384D321D30F94877825A38
:403580003CBF737FDD4F1575F8B500BFF8BC08BC9E4670474D00000001060000F8B500BFF8BC08BC9E46704729000000C0350000C880FF1FB000000098000000000000004A
:4035C00000000000787901001082FF1F00000000000000000000000000000000000000000000000000000000000000005C330000000000000000000000000000000000009A
:403600000000000000000000000000000000000000000000000000000000000000000000000000000000000000000000D480FF1F703300008434000085340000853400004B
:4036400085340000853400008534000085340000853400008534000085340000FFFFFFFFFFFFFFFFFFFFFFFFFFFF0000000000000000000000000000000000000000000049
:40368000000000000000000000000000000000000000000000000000000000000000000000000000000000000000000000000000000000000000000000000000000000000A
:4036C00000000000000000000000000000000000000000000000000000000000000000000000000000000000000000000000000000000000000000000000000000000000CA
:403700000000000000000000000000000000000000000000000000000000000000000000000000000000000000000000000000000000000000000000000000000000000089
:403740000000000000000000000000000000000000000000000000000000000000000000000000000000000000000000000000000000000000000000000000000000000049
:020000040003F7
:0200000480007A
:40000000035200400764004003650040520001402B0101403C0201402E0301404A0401403D0501405E0601403D0701404508014042090140590A0140450B01405F0C0140B0
:400040003B0D01403B0E01402B0F0140491401402C1501405A160140331701404C180140321901403E1A0140431B014003400140044101400342014004430140024401408E
:40008000044501400246014002470140014801400D490140014C0140074D01400450014001510140102011201880816F830F870D880F8B6F8D0D8F0F870D89728B38040108
:4000C0001101190124012C0131013401382039023E104062410349FF4AFF4BFF4DA04F015018580459045A045C905D095F016040628064406540668068406A806C406D208F
:400100006E80800283028C0192049E01A501A602AB04AF01B001B104B301B404B602B702BE41BF04C026C103C54CC620C73EC83BC9FFCAFFCBFFCDAFCE07CF01D018D40F66
:40014000D804D904DA04DB04DC99DD99DF05E040E280E440E540E680E840EA80EC40ED20EE80032007810C020F021022162018041A081E821F1022022402260427812C0247
:400180002E302F1030223F02400443044520470448044E044F06542256285E9A660867047F20C094C290C425CA70CC05CE80D066D224D6F0D860DE40000611011302180305
:4001C00019021B011C06240529012A082B062D012F02320833033407370438203B08580459045C995F018110850F880189038B0C8C0192069310940C9602971099059B0A47
:400200009D0A9E0C9F05A10CA204A303A507A602AA0AAE01B00EB201B30FB710BA02BE04BF40D40FD804D904DB04DC90DD90DF01030507400A600B010E0A10A412021508AC
:4002400016041A501B021E0C1F2821042240271228402B202E802F08320233543712380239185A9585048601870490029A849B019F04A202A404A520A720AA84C013C2CDA4
:40028000C46FCA33CCAFCE07D60FEA010005020204030701110312091406150319022007230424062601280229042A042F04300731033408350439023F114004460449FFC2
:4002C0004A074BFF4C404D204EF04F0550085280580459045A045B045C095D905F01604061A862406320809E8260850489018A0F8B02930494949507966098739B079CCF16
:400300009D019E309F02A4FDA602A708A830A907AAC9B4FFB50FBE10D804D904DC90DF01036007440A500C400E1A104011041204150C162C171019211A401F1020082121C5
:400340002620270429212A802E202F10300432103302362537403B043D103E184101482049044B045080514072808140910895109620970998049B109C409F44A204A322CD
:40038000A4A4A520A601AC04C05CC2ECC46ECA6DCCF7CE62D001E001EA08000C02010408050B0601070409080B011507160F18071B0F1C0C1D0C1E021F02210C2301240B19
:4003C0002604310F360F4040410649FF4AFF4BFF4DA04F045018580459045A045C995D095F01604062C06440654066C068C06AC06CC06EC0820186028C028F0C9101930EEE
:40040000950196019706990C9B039F08A404A703A802B006B401B50FB802BB20BE10C040C106C5D1C702C813C9FFCAFFCBFFCDAFCE0FCF04D018D405D804D904DA04DB04BB
:40044000DD99DF01E040E2C0E440E540E6C0E8C0EAC0ECC0EEC0000802400302075009080E1A1024150418801A041E021F4020082210274029042F403084321033023604A6
:40048000375038803D043E1040804480464049014A084B044E085108520859815A0484048510910496309709980499049B109F40A0A0A204A302A601B020B702C03DC2E4FF
:4004C000C426CA82CC7FCE68D081D224D60BE4020014060308200B0214091501161019021C101E0C241C260228102C0C2E11321F3302342037013E103F4440464105460B04
:4005000047CE483449FF4AFF4BFF4EF04F44500C5401580459045A045B045F0166C06A406B02840C8507860288078B088C0B8E049106920F9301940896019701980C9906F1
:400540009A01A505A702A903AD02AF04B20FB307B508D804D904DC99DF010010010803090504064408010A200B080C400E101544172019081D041E0422242402260428015E
:4005800029082B0832143301350436203A203B083E2044404C0A4D40550156445DA05E045F0185048C018D84901093089504963898409A209B219C019D08A00AA104A5016F
:4005C000A604B008B204B402B580C077C2AEC4E0CA0ECC67CE26D080D230D6F0EC6003020406050208030C051703180632073301350238083F104023410549FF4AFF4BFF29
:400600004DA04F0150185280580459045A045B045C995D995F016040628064406540668068406A806C406D206E8081028301890295029C019D019E02A401A504AE04AF0461
:40064000B002B104B201B302B404B701B808B908BF45C023C105C52CC630C74EC83BC9FFCAFFCBFFCDAFCE07CF01D018D40FD804D904DA04DB04DC09DD99DF05E040E28090
:40068000E440E540E680E840EA80EC40ED20EE800010010803010B080F021622181019041E801F18200421242440250827022F12320435043640380239083E203F02400418
:4006C0004108452848014A024E024F06562A57025C405D105E085F026608670470017C10832089108B019308941095049634972098409B019C019D88A001A104A501A70899
:40070000AF40B301C007C282C4A0CA50CC52CEA3D066D218D6F0D860DE200310071009070C030D0F0E041105130A150A1608170519031A051B0C1C031D101E0C2110240AA8
:4007400026042710290C2B032C032E043310360F370F3A803F044060410249FF4AFF4BFF4DA04F045018580459045A045C905D095F01604062C06440654066C068C06AC0D7
:400780006CC06EC0920495029A039B03A602AA01B002B201B301B404B702BE04C020C106C5D1C702C813C9FFCAFFCBFFCDAFCE0FCF04D018D280D405D804D904DA04DB04E7
:4007C000DC99DD99DF01E040E2C0E440E540E6C0E8C0EAC0ECC0EEC005800A480C400E141020120415041602180419041A081B011F4021082240254427012C402E042F4412
:40080000302031083401358837203C103D863E0240044604482849024E045008520459065AA05B20724093089410962097209C019D089F01A001A708AB80B580C080C2EA9E
:40084000C4A6CAE0CCF6CEF0D024D224D60B020F0308049E06600704087309070CFD0E020F071030110412C91494166018CF19011A301B0221072501270236FF370F3E400A
:40088000580459045C905F01810184188602880E90109202960198189A04A016A208A501A61EA801AB01AE01AF02B001B102B21EB301BE01BF04D40FD804D904DB04DC9905
:4008C000DD90DF0100120108030104100508070808010A200B0C0C010E100F04145015811608170118021E401F042002214027A0284029082D802E182F183011321038121F
:4009000039803B083C025D015E405F28C06FC27EC4F0CA73CC05CE8FD6F004040602070108020A040B040F011208140216041B021C021E0426013008330234063501360175
:4009400037043A20404549FF4AFF4BFF4F0150185280580459045A045B045C995D995F016040624064406540668068806A806C806E8082019201AA02B201B402C045C9FF22
:40098000CAFFCBFFCD83CE03CF01D018D280D804DA04DB04DC09DD99DF01E040E240E440E540E680E880EA80EC80EE800014068009820B200C021308171018841A061D107F
:4009C0001F14201021802210311038903A403B044280468048024C02710276808210860487088F109304960297089EC0A002B440C016C21DC444CC04CE0ED081D218E002E4
:400A0000E280E4400401060214021601170218011A022401260227012A0432033302340435013A08404549FF4AFF4BFF4D834E034F015018580459045A045C995D095F01E0
:400A40006040624064406540668068806A806C806E808102830187048A028F089101930298019E04A308A601A901AB02AD01AF02B002B103B404B504B601B708BB02BF4031
:400A8000C045C5ECC720C823C9FFCAFFCBFFCD83CE03CF01D018D401D804D904DA04DB04DC99DD99DF01E040E240E440E540E680E880EA80EC80EE800120071009200A025A
:400AC0000E1813041520170819A01B011E181F20204021212240271829202A012B012F203201370839023A803B0442804680480249054C025002520159055A8091209304B0
:400B0000961097089D809E40B440B701C022C263C464CA4DCC41CE0BD081D218D60B0401060608070E01140618061A011C04240228062A0134073A20402541034204440692
:400B400045C0460E480649FF4AFF4BFF4C624DA04EF04F41500C58045A045F016640670269106A306B106D106E106F128304840285188802891C8B018D1093209402951FFC
:400B80009802991C9B029F40A104A3C0A401A507A718A801A908AC01AF03B002B180B360B51FB601BB20BE01BF04D602D713D804D904DB04DF0100040314040405840704CA
:400BC00009200B280E15102A1520170819821E041F102131231028802994312032413304388839023B2047154D804F1257405902682A704471107211730896209C01A92163
:400C0000AA04AB01B610C0E6C2E6C467CA0FCC0FCE0FD0E0D230D601EC1000010206050C090F0B300D08101411331209130C153F19041C0A1D221E112133241F250C2733BA
:400C4000281F29112F333018350F360737303B20580459045F01840187018801890C8B028F0191029202930C950E960199049D089E02A50CA90EAA01AF02B002B301B401E4
:400C8000B70EB820BB20BE01BF04D418D604D804D904DB04DF010001010204840540070408800A800E800F1210281510160418011A821E041F0120042301250826402705EA
:400CC00029A22A042D902E082F043111324033043551370438883A083B303E043F90450846205F0166226702800481018401888089208A02908893289404968299909C8116
:400D00009F05A028A341B610C068C2B9C446CA7FCCFFCE7ED680D8B0E280E84033803440CC3084409C40A780E6100780A780C02087809B80A780E0401080C4086708B48052
:400D4000D801EE02B304E8018D02E002A78004200B105D02810287108B808C10A780C080C210D680E010E62099021010750288109902C408DE04E204100111011B011C0139
:400D8000000F0000808000004000000001010000000000000101010101010101800058808000800000000000000B0B0000000000020000E2E20020000000000018E0E000AE
:400DC0008000000000000000000000000000000000000000000000000000000000000000000000000000000000000000000000000000000000000000000000000000000073
:400E000000000000000000000000000000000000000000000000000000000000000000000000000000000000000000000000000000000000000000000000000000000000B2
:400E40000000000000000000000000000000000000000000000000000000000000000000000000000000000000000000000000000000000000000000000000000000000072
:400E80000000000000000000000000000000000000000000000000000000000000000000000000000000000000000000000000000000000000000000000000000000000032
:400EC00000000000000000000000000000000000000000000000000000000000000000000000000000000000000000000000000000000000000000000000000000000000F2
:0200000490006A
:0400000000004005B7
:0200000490105A
:04000000BC90ACAF55
:0200000490303A
:02000000FB38CB
:0200000490402A
:4000000000000000000000000000000000000000000000000000000000000000000000000000000000000000000000000000000000000000000000000000000000000000C0
:400040000000000000000000000000000000000000000000000000000000000000000000000000000000000000000000000000000000000000000000000000000000000080
:400080000000000000000000000000000000000000000000000000000000000000000000000000000000000000000000000000000000000000000000000000000000000040
:4000C0000000000000000000000000000000000000000000000000000000000000000000000000000000000000000000000000000000000000000000000000000000000000
:0200000490501A
:0C00000000012E16106900012E2F0BA12C
:00000001FF